:020000020000FC
:1000000008E00EBF0FEF0DBF45D00FE00AB900EFBB
:100010000BB9389A409A0E940F000C940B006EEFB7
:1000200070E080E06BB900004C9903C04C9BFECFA0
:1000300018C04D9904C04D9BFECF71E012C04E997F
:1000400004C04E9BFECF72E00CC04F9904C04F9B82
:10005000FECF73E006C0833079F00894661F839565
:10006000E1CF880F880F780F10E3170F0E943E0032
:100070000E944F00D4CF089571E008954098000089
:100080000000000000001EBD2DB527FFFDCF1EB5EE
:10009000409A089500E104B901E40CBD089554E6C6
:0E00A00048EC4A950000E9F75A95D1F708950B
:00000001FF
